:1000000004308A00A62C00000A108A100A11820708
:10001000533461346D3470346C3469346E34673405
:1000200021342134213421342134213400340A1084
:100030008A100A118207463472346534713475347B
:1000400065346E346334653420343D3400340A1032
:100050008A100A1182075A34653472346F3420349E
:100060005334693467346E3461346C3400340A10AC
:100070008A100A118207203425344C345534203438
:1000800048347A342034203420342034203420344E
:1000900000340A108A100A118207203425343334C0
:1000A0002E343334663420346B3448347A3420347C
:1000B00020342034203420342034203400340A10FA
:1000C0008A100A1182072034253433342E34333415
:1000D000663420344D3448347A342034203420348B
:1000E000203420342034203400343D308400831305
:1000F0000008031988280630F800F701F70B7E285E
:10010000F80B7D287B30F700F70B8428800B7B28C9
:10011000080044188D2886118E28861583168611AE
:100120008312C418952806129628061683160612FE
:10013000831244199D2886129E28861683168612DD
:100140008312C419A5288613A6288617831686133A
:10015000000083120615831606110330F700F70B13
:10016000AF28831206118316061183120800C501F9
:10017000831686150030831286190130C504831654
:10018000061600308312061A0130F7000310F70D2F
:100190007708C5048316861600308312861A01304C
:1001A000F700F70DF70DFC30F7057708C504831647
:1001B000861700308312861B0130F700F70DF70D0C
:1001C000F70DF830F7057708C5044508F800080072
:1001D0008316061106108610831206108316061069
:1001E00086150616861686178312861483168610C1
:1001F0000000831206158316061100008312B72033
:100200007808C40006118316061100008312061533
:10021000831606110B290C2900008312B7207808D9
:10022000C300061183160611861106128612861364
:100230008312440EF700F030F70577084304F80006
:100240007808C300C31F26298316F028C108031DA0
:100250002B2906102C290614831606100000831281
:10026000861083168610000083120611831606116D
:100270008312420EC3000F30C3054308C400892017
:1002800042080F39C300C400892008002830AC00A0
:100290000C30AD000130AE000630AF000611831601
:1002A0000611831206108316061083128610831619
:1002B0008610861106128612861306110610861005
:1002C0000F308312BD0075200130AB002B08033CBA
:1002D000031C72290330C40089200530BD0075203D
:1002E000AB0A66290230C40089200530BD007520A4
:1002F000AB012B08033C031C89292C302B078400FD
:1003000083130008B000C1013008C200E820AB0A26
:100310007929B12C3E0B8D2990294030BF009129BD
:10032000BF0101303D02BF073F088038C000C10156
:100330004008C200E82008003C08073A0319AA292F
:100340000B3A0319AF29063A0319B729023A0319E0
:10035000BD29C2290130BD00BE008A21C729C101C3
:100360000130C200E8200230BD007520C7290130ED
:10037000BD000230BE008A21C729C1011030C20071
:10038000E820C7290130C1003C08C200E82008006D
:100390008318CD29443084008313F701F801F90153
:1003A000FA01C401C501C601C70143084204410462
:1003B000400403190B2A2030C8000310BC0DBD0DEA
:1003C000BE0DBF0DC40DC50DC60DC70D43084702B8
:1003D000031DF42942084602031DF4294108450281
:1003E000031DF42940084402031C052A4008C402E6
:1003F0004108031C410FC5024208031C420FC602FC
:100400004308031C430FC7020314F70DF80DF90D41
:10041000FA0DC80BDD2944088000840A45088000D5
:10042000840A46088000840A4708800008000408FF
:10043000AF003B30B6009A30B500CA30B400B3010B
:100440000A30B10083142B30840083132E08BF00C0
:100450002D08BE002C08BD002B08BC003608C300C8
:100460003508C2003408C1003308C000C82178082C
:10047000F708031D4E2A3108013A03194E2A2F08A6
:1004800003194F2A0F3931020319482A0318542A35
:10049000AF1B542A2F1B4F2A2030502AAF01303077
:1004A000F7077708BC009C2183103608BF00350889
:1004B000BE003408BD003308BC00C301C201C10145
:1004C0000A30C000C8217A08B6007908B50078085B
:1004D000B4007708B300B10B222A502DB630F700D4
:1004E000FA01F901F8012B082C042D042E04031D38
:1004F0007B2AF701882A0310F81B872AAB0DAC0D65
:10050000AD0DAE0DFA0DF90DF80DF70B7B2AF813B2
:1005100008002F0803194E2BBB00330803194E2B7C
:10052000BB02031C982A7F30BB0703184E2B9E2A60
:100530008130BB02031C4E2B03194E2B3B08F700E6
:10054000F801F901FA01BA013008B900B917310808
:10055000B8003208B7001930BB003608B7020318DC
:10056000C12A0130B8020318C12AB9020318C12AEE
:10057000BA020318C12ABA0AB90AB80A3608B70774
:10058000F32A3508B8020318DC2A0130B90203182F
:10059000DC2ABA020318DC2ABA0AB90A3508B807F5
:1005A0003608B707031CF32AB80A031DF32AB90A51
:1005B000031DF32ABA0AF32A34088038B902031853
:1005C000F22A0130BA020318F22ABA0A3408803833
:1005D000B9073508B807031CD02AB90A031DD02A69
:1005E000BA0AD02A7A14BB0BF62A012B0310B70DD6
:1005F000B80DB90DBA0D0310FA0DF90DF80DBC0DBB
:10060000AD2A3C1C092B0310F80CF90CFA0CBC0C9D
:100610000C2BF70303194E2BBC1B352B0310B70D06
:10062000B80DB90DBA0D3608B7020318212B0130E9
:10063000B8020318212BB9020318212BBA02031C9C
:10064000442B3508B80203182C2B0130B9020318CB
:100650002C2BBA02031C442B34088038B90203182F
:10066000352B0130BA02031C442BFA0A031D442B1C
:10067000F90A031D442BF80A031D442BF70A03193A
:100680004E2BF80CF90CFA0C3008BB003408BB06F2
:10069000BB1F4C2BF817522BF813522BF701F80104
:1006A000F901FA0108000408B4003308B600031980
:1006B000E52B3208BF003108BE003008BD002F080E
:1006C000BC00C301C2012030C1008230C0003C0820
:1006D0000319D72BC40040080319D72BC4070318EC
:1006E000782B7F30C402031CD72B0319D72B7C2B0C
:1006F0008130C4070318D72B4408F700F801F9012B
:10070000FA013D08C800C8173E08C7003F08C600E8
:100710001830C400C501461CA52B4308FA07031C6A
:10072000972BF90A031D972BF80A0319C5174208DE
:10073000F907031C9E2BF80A0319C5174108BE00D0
:10074000BE173E08F8070318C517C50DF80CF90CBD
:10075000FA0CC80CC70CC60C0310C40B8A2B013052
:10076000F7070318D72BF81BBC2BC80DFA0DF90D92
:10077000F80DF7030319D72BC81FCD2BFA0A031D59
:10078000CD2BF90A031DCD2BF80A031DCD2BF80C38
:10079000F90CFA0CF70A0319D72B3D08C5004108DC
:1007A000C506C51FD52BF817DB2BF813DB2BF7017C
:1007B000F801F901FA017A08B2007908B100780865
:1007C000B0007708AF00B60B592B3208BF003108D4
:1007D000BE003008BD002F08BC003C08B63CBC0081
:1007E000FA013D08C000BD170310BD0CBE0CBF0CC4
:1007F000FA0CF90CF80CF70CBC0BF42BC01F0B2CEB
:10080000F709F809F909FA09F70A0319F80A0319A7
:10081000F90A0319FA0A7A08B2007908B1007808CF
:10082000B0007708AF00B21F222CB403B416AF0992
:10083000B009B109B209AF0A0319B00A0319B10A24
:100840000319B20A3B30BB009A30BA00CA30B90073
:10085000B8010A30B60033080319B40A83142F30E4
:10086000840083133208BF003108BE003008BD0089
:100870002F08BC003B08C3003A08C2003908C10079
:100880003808C000C8217808F708031D5A2C330A1D
:10089000360203195A2C340803195C2C0F3936021E
:1008A0000319542C03188C2CB41B8C2C341B5C2C7B
:1008B0002030882C2030B405B41E6A2CB4123308C2
:1008C000031DB4037708B4002D30BC009C2134080C
:1008D000F700B40133083602031D782C7708B40002
:1008E0002E30BC009C213408F7002030B4050030C5
:1008F0003030B41E882CB4123308031DB4037708BB
:10090000B4002D30BC009C213408F700B401303015
:10091000F7077708BC009C2183103B08BF003A080A
:10092000BE003908BD003808BC00C301C201C101C6
:100930000A30C000C8217A08BB007908BA007808DC
:10094000B9007708B800B60B2E2C080003081F3931
:10095000830007309F0083130130831685008312C4
:100960004629AB012B080420AB0AF700BC009C21F0
:100970000E302B02031DB22CA101A201A801A70178
:100980000C108E018F018E0187309000220FC92C30
:10099000E52CA101210FCD2CDE2C0C1CD42C0C102D
:1009A000A70A0319A80AD72CD52CD62C000014307E
:1009B000F700F70BD92C0000A10ACA2C4730F7002A
:1009C000F70BE02CE32CA20AC62C4630F700F70BFD
:1009D000E72C90010C1CEF2CA70A0319A80A0F089A
:1009E000FA000E08F7000F087A02031DEF2C7708B3
:1009F000A9007A08AA002708A5002808A600290847
:100A0000A3002A08A4000130BD00BE008A21AB016A
:100A10002B081720AB0AF700BC009C210B302B02DF
:100A2000031D082D0230BD000130BE008A21A3083D
:100A3000031D2F2DA408031D2F2DA508031D2F2DE9
:100A4000A608031D2F2DAB012B082720AB0AF700AA
:100A5000BC009C210B302B02031D242DFC2DA6086D
:100A6000031D5D2D2508013C031C5D2D031D422D3A
:100A70002408863C031C5D2D031D422D23089F3C4A
:100A8000031C5D2D2030BC009C21413084002608D1
:100A9000AE002508AD002408AC002308AB00172ADF
:100AA0000430AB002B083720AB0AF700BC009C21B8
:100AB0000D302B02031D522DFC2DA608031D722D97
:100AC00025080E3C0318B72DFF3A031D722D24088C
:100AD000413C0318B72DFF3A031D722D2308403CFB
:100AE0000318B72D2608AE002508AD002408AC0079
:100AF0002308AB006E227A08AE007908AD007808B2
:100B0000AC007708AB002E08B2002D08B1002C080D
:100B1000B0002B08AF00B601B5017A30B4008830C0
:100B2000B30089227A08AE007908AD007808AC00DD
:100B30007708AB002030BC009C21893084002E084F
:100B4000B2002D08B1002C08B0002B08AF00033014
:100B5000B30053230630AF002F084920AF0AF70037
:100B6000BC009C2111302F02031DAC2DFC2D26084A
:100B7000AE002508AD002408AC002308AB006E22AF
:100B80007A08AE007908AD007808AC007708AB00B1
:100B90002E08B2002D08B1002C08B0002B08AF00C1
:100BA000B6012430B5007430B4009230B30089220D
:100BB0007A08AE007908AD007808AC007708AB0081
:100BC0002030BC009C21893084002E08B2002D0802
:100BD000B1002C08B0002B08AF000330B300532342
:100BE0000630AF002F085F20AF0AF700BC009C2141
:100BF00011302F02031DF22D831605148312051CDC
:060C0000FC2DBC2C63007A
:02400E0062212D
:00000001FF
;PIC16F628A
;CRC=5B30  CREATED="07-sept.-23 22:25"
